:020000040800F2
:10000000F01B002045010008B1020008A902000809
:10001000AD020008410200080F19000800000000AE
:10002000000000000000000000000000331600087F
:100030004502000800000000B7010008451700084D
:100040005F0100085F0100085F0100085F01000810
:100050005F0100085F010008490200085F01000815
:100060005F0100085F0100085F0100085F010008F0
:100070005F0100085F0100085F0100085F010008E0
:100080005F0100085F0100085F0100085F010008D0
:100090005F0100085F0100085F0100085F010008C0
:1000A0005F0100085F0100085F0100085F010008B0
:1000B0005F0100085F0100085F0100085F010008A0
:1000C0005F0100085F0100085F0100085F01000890
:1000D0005F010008791800085F0100085F0100084F
:1000E0005F0100085F0100085F0100085F01000870
:1000F0005F0100085F0100085F0100085F01000860
:100100005F0100085F0100085F0100085F0100084F
:100110005F0100085F010008111800083918000885
:100120005F0100085F0100085F0100085F0100082F
:10013000DFF80CD000F072F80048004735190008CD
:10014000F01B00200648804706480047FEE7FEE710
:10015000FEE7FEE7FEE7FEE7FEE7FEE7FEE7FEE777
:10016000B117000831010008EFF3108072B6704734
:1001700080F310887047204C204D25604FF000041C
:1001800084F309881E4C4FF0010525701D4C4FF07B
:100190008055256062B6FEE730B41A4C4FF08055AA
:1001A000256030BC704730B4164C4FF08055256048
:1001B00030BC704700BF72B6EFF3098028B1203819
:1001C00080E8F00F10490968086000B50F488047C3
:1001D0005DF804EB0E480F490A7802700A480E4990
:1001E0000A680260106890E8F00F203080F30988F8
:1001F0004EF0040E62B6704720ED00E00000FFFFF5
:100200004E00002004ED00E0540000208D0A00089C
:1002100043000020440000205C000020064C074DF5
:1002200006E0E06840F0010394E8070098471034C6
:10023000AC42F6D3FFF780FF981A0008B81A0008FE
:1002400000BFFEE77047000010B5012000F014F871
:1002500028B10548006880F00100034908600120CA
:1002600000F004F810BD00000C0C014001490860CA
:100270007047000014040140014600200022074B93
:100280001B6803EA0102054B14331B680B4013B1D2
:100290000AB1012000E00020704700000004014086
:1002A00010B501F057FA10BD00BFFEE700BFFEE732
:1002B0007047000002490143024A11607047000084
:1002C0000000FA050CED00E02DE9F04105460E4670
:1002D000144600271148007818B112202070BDE89C
:1002E000F0812878012808D0022807D0032802D0FE
:1002F000042804D100E000BF00BF00BF02E00120DD
:100300002070ECE700BFFFF72FFF07466E6138460D
:10031000FFF72EFF0020207000BFE0E74100002023
:1003200010B500F017F800F0DDFE00F005FF00F05A
:1003300025FF00F0A7FE00F079FE00F0B9FF00F005
:10034000E3FF00F05BFF00F081FF00F06FFC00F0C6
:1003500007F810BD002001490880704724000020E4
:100360007047000006480078012808D10548007849
:10037000FF2804D203480078401C024908707047E7
:100380004E0000204100002010B500241A480078DB
:10039000012830D1FFF7E8FE04461848007820B164
:1003A00016480078401E1549087014480078F8B9BE
:1003B00013480078E0B901F009F8124812490978A9
:1003C00050F82100114908600F4800781049097859
:1003D00088420DD00D480068C06B401C0B4909686D
:1003E000C8630C480068401C0A490860FFF7DBFE40
:1003F0002046FFF7BDFE10BD4E000020410000204A
:1004000042000020C8090020440000205C000020B9
:10041000430000202800002010B500240B4800787D
:10042000012811D1FFF7A0FE04460948007840B921
:1004300008480078FF2804D206480078401C054987
:1004400008702046FFF794FE10BD00004E0000200B
:10045000410000204200002010B50024134800781D
:10046000012821D1FFF780FE044611480078C0B171
:100470000F480078401E0E4908700846007860B9A1
:100480000C48007828B92046FFF772FE00F064FFA0
:100490000AE02046FFF76CFE06E02046FFF768FE04
:1004A00002E02046FFF764FE10BD00004E00002071
:1004B000420000204100002070B50546002610488B
:1004C000007808B1002070BDFFF74EFE06460D48CB
:1004D0000468006820B10B4800684068094908605A
:1004E0003046FFF745FE4CB10320207025810020E7
:1004F000606005A06061204600F08AFD2046E2E7CA
:10050000410000202C0000203F0000002DE9F041B8
:1005100005460E46144600272878032803D00120FC
:100520002070BDE8F0813248007810B102202070C0
:10053000F7E73048007810B10D202070F1E7FFF7A1
:1005400013FE0746288940B12889401E2881384675
:10055000FFF70EFE00202070E3E72748006890F8C0
:10056000340040F001002449096881F8340000207B
:100570002149096881F835001F480068066328464C
:1005800000F008FD3846FFF7F3FD00F0E5FEFFF749
:10059000EBFD07461848006890F8350020B10128A7
:1005A00009D0022806D102E0002020700BE00E20C6
:1005B000207008E000BF29460F48006800F0B8FC32
:1005C0000A20207000BF00BF00200B49096881F895
:1005D00034000949096881F8350007490968C8618C
:1005E0000549096808623846FFF7C2FD00BF98E771
:1005F00041000020420000205400002070B5044655
:1006000000252078032801D0012070BDFFF7ACFD44
:100610000546A07A60B1002301221946204600F069
:100620003FFC2846FFF7A4FD00F096FE0020ECE713
:1006300020894FF6FF71884207D22089401C208113
:100640002846FFF795FD0020DFE72846FFF790FDDD
:100650003320DAE710B50B48007890B900F0B6FE09
:10066000094800780949087009480749097850F88D
:100670002100084908600846006807490860FFF73C
:100680007AFD10BD4E0000204400002043000020F1
:10069000C80900205C0000205400002010B5002490
:1006A000022000F0F5F9FFF75FFD044600200B493A
:1006B00008602046FFF75CFD0A2000F0E9F9FFF72B
:1006C00053FD0446054800680549086001200549B6
:1006D00008702046FFF74CFD10BD000050000020C0
:1006E0003800002040000020704700002DE9FE4F38
:1006F00006460F4690461C464FF00009FFF734FDB2
:1007000081461F48007828B14846FFF731FD3C205C
:10071000BDE8FE8F1B4850F8240060BB012019493A
:1007200041F824004846FFF723FD0023424639469E
:10073000304600F009F982460020009001900346FF
:10074000024651460290204600F056FE054635B955
:100750000D48007801280CD100F0FEFD09E0FFF7FC
:1007600003FD81460020074941F824004846FFF771
:10077000FFFC2846CCE74846FFF7FAFC2820C7E7ED
:1007800041000020C80900204E0000202DE9F04F54
:1007900085B081468A4693461C46DDE90F78129D56
:1007A00000200390FFF7E0FC03902348007830B16D
:1007B0000398FFF7DDFC3C2005B0BDE8F08F1F4833
:1007C00050F8240088BB01201C4941F824000398FC
:1007D000FFF7CEFC2A464146384600F01DFF2B4667
:1007E0005A465146484600F0AFF804901198CDE9BA
:1007F000008002953A4620460E9B049900F0FCFDCD
:10080000064636B90E48007801280CD100F0A4FD48
:1008100009E0FFF7A9FC03900020084941F82400F3
:100820000398FFF7A5FC3046C6E7FFE70398FFF7FC
:100830009FFC2820C0E7000041000020C8090020DC
:100840004E000020704770472DE9F04106460F46E4
:1008500014464FF000081548007818B11220207097
:10086000BDE8F081FFF780FC8046FF2E03D11048E1
:10087000006890F836600F4850F826502DB9404671
:10088000FFF776FC43202070EAE7012D05D14046B2
:10089000FFF76EFC43202070E2E72F654046FFF72C
:1008A00067FC0020207000BFDAE700004100002054
:1008B00054000020C8090020704700002DE9F047CF
:1008C00007460D464FF0000A002028606860FFF7D9
:1008D0004BFC8246FF2F03D11948006890F8367010
:1008E000184850F827402CB95046FFF741FC4320E8
:1008F000BDE8F087012C04D15046FFF739FC4320B6
:10090000F6E7207C00F0010020B95046FFF730FCEC
:100910004520EDE70026D4F80C90D4F80880504626
:10092000FFF726FC00E0761C58F8041B0029FAD0DB
:10093000B0002860A9EB0600800068600020D7E7BF
:1009400054000020C809002070B5044610464FF03E
:1009500080750560051F28462C606FF00106051F95
:1009600028462E604FF01236051F28462E604FF0A5
:100970000336051F28462E604FF00236051F284615
:100980002E607610051F28462E60051F2846296018
:100990004FF01136051F28462E604FF01036051F08
:1009A00028462E604FF00936051F28462E604FF06E
:1009B0000836051F28462E604FF00736051F2846CB
:1009C0002E604FF00636051F28462E604FF0053684
:1009D000051F28462E604FF00436051F28462E605E
:1009E00070BD00002DE9F04105464FF00008FFF70B
:1009F000BBFB8046FF2D05D12048006890F836509B
:100A0000012608E01D48006890F83600A84201D190
:100A1000012600E000261A4850F825402CB940462F
:100A2000FFF7A6FB4820BDE8F081012C04D1404629
:100A3000FFF79EFB4320F6E794F838701148C05D3D
:100A400094F8391088430F49C8550846C05D30B93D
:100A500094F83A100C48007888430B49087094F8D1
:100A6000340040F0080084F834004046FFF780FB73
:100A7000012E01D100F070FC0020D4E754000020CA
:100A8000C8090020460000204500002070470000F3
:100A900070B5054600261748007800B170BD1648AD
:100AA000007800B1FAE71DB3FFF75EFB0646134876
:100AB000006890F838401248005D1049096891F8C4
:100AC000391088430E4908550846005D40B90B4867
:100AD000006890F83A100B4800788843094908707C
:100AE0000648006805633046FFF742FB00F034FC1F
:100AF00000BFD3E741000020420000205400002046
:100B0000460000204500002070B5002600F072F875
:100B1000FFF72AFB064631480068401C2F49086051
:100B20003046FFF725FB2E480078012853D12D4889
:100B3000007820B1012804D0022809D103E0012562
:100B40000BE0002509E0012501202649087004E09A
:100B5000012500202349087000BF00BF05B970BD02
:100B60002148046833E0FFF7FFFA0646206B50B3D4
:100B7000206B401E2063206B28BB94F8340000F0EB
:100B8000370040B114F8340F00F0C8002070012085
:100B90006070343C02E0002084F8350094F83400A2
:100BA00000F0080078B93834A07810490978084373
:100BB0000E49087020780E49085C6178084314F8E3
:100BC00038190B4A505464693046FFF7D1FA94F84B
:100BD00036003F28C7D100BFC1E7000070000020E9
:100BE0004E0000206400002060000020450000202E
:100BF0004600002010B507480088401C05490880C1
:100C0000084600880A2803D30020088000F004F872
:100C100010BD00002400002010B503480068FFF755
:100C2000EDFC0446204610BD80000020F8B54FF4CE
:100C30002071284800F032FB4021274800F02EFBAD
:100C4000002514E0681C86B205EB8500214901EB04
:100C5000C00406EB860001EBC00764202070002072
:100C600084F82500E7601DA02062681C85B20F2D66
:100C7000E8D305EB8500174901EBC0046420207020
:100C8000002084F82500E06014A0206200201449B0
:100C90000860144908801020134908800D48134942
:100CA00008600120FFF708FC114908600020FFF7E9
:100CB00003FC104908606A460FA10D480068FFF761
:100CC00003FB6A4611A10B480068FFF7FDFA00F02C
:100CD00027F8F8BD30130020B01700203F000000B7
:100CE000780000207600002074000020840000209E
:100CF0007C0000208000002075432F4F532D494970
:100D000020546D724C6F636B0000000075432F4FD1
:100D1000532D494920546D725369676E616C000010
:100D200000B587B00320002180220A4BCDE90132B3
:100D3000CDE903104FF6FD700B46074A00900748B7
:100D4000FFF724FD06AA06A10020FFF77DFD07B0EE
:100D500000BD0000B0150020AC170020DD0D00081C
:100D600075432F4F532D494920546D7200000000E8
:100D700070B50B46032580F82550012B05D1154E83
:100D8000C5693668354445610CE085692DB9114E59
:100D9000C56936683544456104E00E4E856936689C
:100DA00035444561057D05F007040B4D05EBC40195
:100DB0000D682DB908600025C56001258D8006E00D
:100DC0000A680860C26010618D886D1C8D800025E6
:100DD000056170BD78000020B017002008B500BF85
:100DE00000BF6A4600211A480068FFF78FFBFFF733
:100DF00013FB18480068401C164908600846007834
:100E000000F00708144800EBC8073C681AE0E668E1
:100E1000104960690968884213D1204600F01EF825
:100E200094F82400022804D101212046FFF7A0FFF6
:100E300002E0022084F82500656815B12046A1680B
:100E4000A8473446002CE2D1FFF706FBC9E70000B3
:100E50008000002078000020B017002030B5057D0C
:100E600005F007040D4D05EBC4031D68854205D14F
:100E7000C168196039B100250D6104E00169C268DB
:100E8000CA6002B11161012580F825500025C560B6
:100E900005619D886D1E9D8030BD0000B01700204B
:100EA0002DE9F04F05460F4690469946A87A1C4911
:100EB0000E5C05F10B00805D11F800B00BEBC60075
:100EC00000F0FF0A174850F82A4000202434E06060
:100ED0002760207C20EA0800207484F81190207C90
:100EE000243C00F0080068B994F83A000E490978EB
:100EF00008430D4908700D48805D94F83910084387
:100F00000A4988552946204600F012F8206A20B187
:100F10002046216A00F021F8E5615046BDE8F08FD7
:100F200098190008C809002045000020460000204C
:100F300010B590F8382001F10B039B5C90F8394014
:100F4000A34301F10B04A35423469B5C23B98B7A82
:100F500090F83A40A3438B7210BDF0B5024612F8E8
:100F6000384F95785678383A0B4618680FE000F1FC
:100F70000B073F5DB74300F10B0C0CF8047067469C
:100F80003F5D17B9877AAF4387721B1D1868002829
:100F9000EDD1F0BD10B51B4A1268D061194A126834
:100FA00092F8383000F10B02D25C164B1B6893F8B4
:100FB00039301A43134B1B6893F8384000F10B0388
:100FC0001A55827A0F4B1B6893F83A301A43827293
:100FD0000C4A126892F838100B4A525C094B1B6895
:100FE00093F839309A43084B5A541A46525C42B926
:100FF000044A126892F83A30044A12789A43034B32
:101000001A7010BD5400002046000020450000204A
:10101000014600228A72002005E0002301F10B0244
:101020001354421CD0B20828F7D370472DE9F04181
:101030005021114800F032F900250DE0681C86B2FD
:101040000D4800EB051400EB0617002020706760C8
:101050000AA0E060681C85B2042DEFD3064800EBBF
:10106000051400202070606004A0E060024804497C
:101070000860BDE8F0810000780500203F00000016
:101080003000002070B5F021134800F007F900246B
:1010900011E0601C85B204EB44000F4901EBC00372
:1010A00005EB450001EBC006002018705E600BA048
:1010B0005861601C84B2092CEBD304EB4400064950
:1010C00001EBC00300201870586004A05861084666
:1010D0000349086070BD0000880400203F00000044
:1010E0002C00002000200A4908600A4908700A49BB
:1010F00008700A4908700A4908700A4908600A49D4
:1011000008600A4908600A4908600A49087070477F
:101110007000002041000020420000204F0000200D
:101120004E00002028000020500000203C0000203D
:10113000380000204000002000210A4A11700020E1
:1011400004E00021084A1154411CC8B20828F8D311
:101150000021064A1170064A1170064A1160064ABB
:101160001160704745000020460000204300002029
:10117000440000205C0000205400002070B54FF4B3
:10118000F261194800F08AF84FF48071174800F0B6
:1011900085F8002413E0601CC5B204EB440000EBAA
:1011A000C400114901EBC00305EB450000EBC5008D
:1011B00001EBC0065E610EA01865601CC4B2152C60
:1011C000E9D304EB440000EBC400074901EBC00382
:1011D0000020586106A018650020064908600248F2
:1011E0000549086070BD0000C80A0020C809002039
:1011F0003F000000600000205800002000B587B0CC
:101200000320002180220A4BCDE90132CDE90310F1
:101210004FF6FF703F23074A00900748FFF7B6FAE2
:1012200006AA06A13F20FFF70FFB07B000BD000094
:10123000C8070020C40900202D15000875432F4F52
:10124000532D49492049646C6500000000B587B002
:101250000320002180220A4BCDE90132CDE90310A1
:101260004FF6FE703E23074A00900748FFF78EFABC
:1012700006AA06A13E20FFF7E7FA07B000BD00006E
:10128000C8050020C40700205515000875432F4FDE
:10129000532D4949205374617400000004E000227A
:1012A00000F8012B4A1E91B20029F8D170470000C6
:1012B00070B578211148FFF7F1FF00240EE004EB30
:1012C00044000E4901EBC005601C00EB400001EB3F
:1012D000C00068600AA06861601C84B2042CEED370
:1012E00004EB4400054901EBC0050020686004A040
:1012F000686108460349086070BD0000581200206C
:101300003F000000680000202DE9F04160211048F6
:10131000FFF7C4FF00240DE0601C86B204EB44001C
:101320000B4901EBC00506EB460001EBC0072F603F
:10133000601C84B2032CEFD304EB4400044901EB9E
:10134000C00500202860084602490860BDE8F08119
:10135000D01200206C00002010B50024FEF704FF1E
:10136000044613480078F8B912480078E0B900F054
:101370002DF811481149097850F8210010490860EA
:101380000E4800780F49097888420DD00C48006853
:10139000C06B401C0A490968C8630B480068401CC0
:1013A00009490860FEF7F8FE2046FEF7E1FE10BD91
:1013B0004100002042000020C80900204400002015
:1013C0005C00002043000020280000200649074A56
:1013D0001278885C0649095C034A515C01EBC00144
:1013E000044A117070470000981900084500002059
:1013F00046000020440000202DE9F84F05460F4626
:1014000090469946DDE90AAB00200090FEF7ACFE5D
:1014100000903F480468002C75D01C3454F8080C28
:101420003B4908600098FEF7A3FE44F81C7CA576B3
:10143000002020766076606144F818BC44F810AC57
:1014400044F8148C0C9824F80C0C24F80A9C002006
:10145000E077E810207705F00700E076217F012093
:101460008840A077E17E01208840607700202060DE
:101470006060E060A0602062A0626062E062206361
:1014800024A060631C3C002606E0002104F1540007
:1014900040F82610701CC6B2002EF6D02046FFF78A
:1014A00023F92046FFF7CEF9FEF75EFE00901A48BA
:1014B00040F825401948006860610020A061174885
:1014C000006810B11548006884611448046038341D
:1014D000A078134909780843114908702078114908
:1014E000085C6178084314F838190E4A50540E48C5
:1014F0000078401C0C4908700098FEF739FE002067
:10150000BDE8F88FFFE70098FEF732FE4220F7E7CC
:10151000580000203F000000C809002060000020A3
:1015200045000020460000204F000020002400BF9E
:1015300000BFFEF719FE044605480068401C044938
:1015400008602046FEF714FEFFF77DF9F1E7000082
:1015500050000020002400BF02E01420FFF798FA9A
:10156000194800780028F8D0184800686421B0FBBA
:10157000F1F0164908600846006828B900201449AF
:101580000870FF20FFF72EFA00BFFEF7EDFD0446BE
:10159000104800681049086000200E490860204685
:1015A000FEF7E6FD0C48006808490968B0FBF1F059
:1015B000C0F1640006490870FFF77EF900F00EF8EC
:1015C0000A20FFF765FAE0E740000020380000201D
:1015D00034000020500000203C0000207CB5002595
:1015E00014E069462846FFF769F9064666B90948D6
:1015F00050F8254044B1012C06D0D4E9020100EB9B
:101600008100A0640198E064681CC5B23F2DE8D950
:101610007CBD0000C809002002F0010343B102F0C4
:1016200002032BB102E0491E002308C00029FAD1B1
:101630007047704710B500F001F810BD0CB50020E0
:10164000019000903348006840F4803031490860D0
:1016500000BF3048006800F4003000900198401C42
:101660000190009818B90198B0F5A06FF1D1294800
:10167000006800F4003010B10120009001E000206B
:1016800000900098012843D12348006840F01000E2
:10169000214908600846006820F0030008600846F9
:1016A000006840F0020008601A4840681949486024
:1016B0000846406848600846406840F480604860DA
:1016C0000846406820F47C1048600846406840F4B2
:1016D000E81048600846006840F08070086000BF6D
:1016E0000C48006800F000700028F9D009484068F4
:1016F00020F00300074948600846406840F00200B7
:10170000486000BF0348406800F00C000828F9D189
:101710000CBD00000010024000200240042808D147
:101720004FF0E021096941F004014FF0E02211611E
:1017300007E04FF0E021096921F004014FF0E022B9
:101740001161704710B5FEF70DFEFFF7DDF9FEF7EA
:101750001BFE10BD10B56FF00400FFF7DFFF10484F
:101760000088C0F3C7000F4908700D4800680E4993
:10177000B0FBF1F442F2107044430A200B49088098
:101780004FF0E020006940F002004FF0E0210861D6
:1017900008464461006940F00100086110BD000086
:1017A000000000201C00002000127A001E00002013
:1017B00010B51348006840F0010011490860084660
:1017C0004068104908400E494860084600680E49C4
:1017D00008400B4908600846006820F48020086033
:1017E0000846406820F4FE0048604FF41F008860FF
:1017F000FFF720FF4FF000600449086010BD0000B3
:10180000001002400000FFF8FFFFF6FE08ED00E0C8
:1018100010B50121064800F026F840B105480068DF
:10182000401C044908600121014800F019F810BD6E
:10183000001000401400002010B50121064800F0FF
:1018400012F840B105480068401C044908600121B5
:10185000014800F005F810BD001000401400002001
:10186000CA430282704702460020138A0B400BB124
:10187000012000E00020704710B540F225510848D3
:1018800000F012F850B1064800F038F80549086039
:101890000846008881B2024800F035F810BD00000B
:1018A000003801401800002070B5024600240023D3
:1018B0000025002040F66A16B14200D100BFC1F3F6
:1018C000421501F01F03012606FA03F3012D02D190
:1018D0009689334006E0022D02D1168A334001E09A
:1018E000968A33400C12012606FA04F41688344016
:1018F00013B10CB1012000E0002070BD01468888C2
:10190000C0F308007047C1F308028280704700BF2F
:10191000FEE702E008C8121F08C1002AFAD170478A
:101920007047002001E001C1121F002AFBD170475F
:1019300000BFFEE710B5FEF7B3FC4FF4A060FEF762
:10194000B9FCFEF7EDFC0323044A00210448FEF72E
:10195000CDFEFEF77FFE002010BD000084020020B7
:101960006519000870B50446002500BFFEF796FE15
:10197000FEF7FAFB05460723054A00210548FEF756
:10198000B5FE0320FFF72EF82846FEF7F1FB70BDE9
:101990008404002031190008000001000200010049
:1019A0000300010002000100040001000200010028
:1019B0000300010002000100050001000200010017
:1019C0000300010002000100040001000200010008
:1019D00003000100020001000600010002000100F6
:1019E00003000100020001000400010002000100E8
:1019F00003000100020001000500010002000100D7
:101A000003000100020001000400010002000100C7
:101A100003000100020001000700010002000100B4
:101A200003000100020001000400010002000100A7
:101A30000300010002000100050001000200010096
:101A40000300010002000100040001000200010087
:101A50000300010002000100060001000200010075
:101A60000300010002000100040001000200010067
:101A70000300010002000100050001000200010056
:101A80000300010002000100040001000200010047
:101A90000300010002000100B81A00080000002045
:101AA0008800000012190008401B00088800002070
:101AB000681B00002219000800A24A040000000070
:101AC00000000000010203040607080900000000EE
:101AD0000000000000000000000000000000000006
:101AE00000000000000000000000000000000000F6
:101AF00000000000000000000000000000000000E6
:101B000000000000000000000000000000000000D5
:101B100000000000000000000000000000000000C5
:101B200000000000000000000000000000000000B5
:101B300000000000000000000000000000000000A5
:0400000508000131BD
:00000001FF
