:020000040800F2
:10000000200400204501000809040008A903000895
:1000100005040008DD010008FF0A000800000000D8
:10002000000000000000000000000000F9050008CA
:10003000E101000800000000E1040008E5060008F6
:100040005F0100085F0100085F0100085F01000810
:100050005F0100085F010008E50100085F0100087A
:100060005F0100085F0100085F0100085F010008F0
:100070005F0100085F0100085F0100085F010008E0
:100080005F0100085F0100085F0100085F010008D0
:100090005F0100085F0100085F0100085F010008C0
:1000A0005F0100085F0100085F0100085F010008B0
:1000B0005F0100085F0100085F0100085F010008A0
:1000C0005F0100085F0100085F0100085F01000890
:1000D0005F010008C90800085F0100085F0100080F
:1000E0005F0100085F0100085F0100085F01000870
:1000F0005F0100085F0100085F0100085F01000860
:100100005F0100085F0100085F0100085F0100084F
:100110005F0100085F010008490700087107000837
:100120005F0100085F0100085F0100085F0100082F
:10013000DFF80CD000F040F8004800474D0D0008F3
:10014000200400200648804706480047FEE7FEE7F7
:10015000FEE7FEE7FEE7FEE7FEE7FEE7FEE7FEE777
:10016000E90600083101000840EA01039B0703D0BB
:1001700009E008C9121F08C0042AFAD203E011F8E6
:10018000013B00F8013B521EF9D2704730B50B46D7
:10019000014600202022012409E021FA02F59D42B7
:1001A00005D303FA02F5491B04FA02F52844151E8B
:1001B000A2F10102F1DC30BD064C074D06E0E0681B
:1001C00040F0010394E8070098471034AC42F6D39E
:1001D000FFF7B2FF100E0008300E000800BFFEE768
:1001E0007047000010B5012000F014F828B1054850
:1001F000006880F0010003490860012000F004F865
:1002000010BD00000C0C014001490860704700005F
:1002100014040140014600200022074B1B6803EA3A
:100220000102054B14331B680B4013B10AB10120C6
:1002300000E0002070470000000401402DE9F0417B
:10024000024600250026002000230024002791F804
:1002500003C00CF00F0591F803C00CF0100CBCF1BA
:10026000000F03D091F802C04CEA050591F800C0D8
:10027000BCF1000F31D0146800202BE04FF0010CCE
:100280000CFA00F3B1F800C00CEA03069E4220D13C
:1002900083004FF00F0C0CFA03F7BC4305FA03FC84
:1002A0004CEA040491F803C0BCF1280F06D14FF0CA
:1002B000010C0CFA00FCC2F814C00AE091F803C06B
:1002C000BCF1480F05D14FF0010C0CFA00FCC2F84C
:1002D00010C0401C0828D1D31460B1F800C0BCF194
:1002E000FF0F34DD546800202EE000F1080C4FF0C1
:1002F000010808FA0CF3B1F800C00CEA03069E42AC
:1003000021D183004FF00F0C0CFA03F7BC4305FA20
:1003100003FC4CEA040491F803C0BCF1280F05D19A
:1003200000F1080C08FA0CF8C2F8148091F803C028
:10033000BCF1480F07D100F1080C4FF0010808FA92
:100340000CF8C2F81080401C0828CED35460BDE8D9
:10035000F0814161704701617047000008B50121DB
:10036000042000F0CFF80121880300F0CBF84FF40F
:100370000070ADF8000003208DF8020018208DF801
:10038000030069460748FFF759FF4FF48060ADF856
:10039000000004208DF8030069460248FFF74EFF75
:1003A00008BD00000008014000BFFEE708B50121BC
:1003B000082000F0A7F80120ADF8000003208DF818
:1003C000020010208DF8030069460248FFF736FF4F
:1003D00008BD0000000C014008B50121082000F014
:1003E00091F82020ADF8000003208DF802001020C5
:1003F0008DF8030069460248FFF720FF08BD0000A2
:10040000000C014000BFFEE7704708B54FF4C06024
:1004100000F048F836208DF8000001208DF8030028
:1004200000208DF8010003208DF80200684600F0DE
:1004300001F808BD70B5002100230F22C47804B371
:10044000154C246804F4E064C4F5E064210AC1F1A9
:100450000403CA40447804FA03F184781440214329
:1004600009010E4C0678A155047804F01F050124FB
:10047000AC4005786D11AD0005F1E025C5F80041EF
:1004800009E0047804F01F050124AC40044D06780F
:10049000761145F8264070BD0CED00E000E400E068
:1004A00080E100E002490143024A11607047000008
:1004B0000000FA050CED00E008B54FF4C060FFF74E
:1004C000F1FF25208DF8000000208DF801000120AB
:1004D0008DF802008DF803006846FFF7ABFF08BDFA
:1004E0007047000029B1064AD2690243044BDA6121
:1004F00004E0034AD2698243014BDA61704700008D
:100500000010024029B1064A92690243044B9A61E5
:1005100004E0034A92698243014B9A6170470000EC
:100520000010024030B500210022002400232D4D90
:100530006D6805F00C0121B1042905D0082923D1EB
:1005400005E0294D056022E0274D05601FE0254D9F
:100550006D6805F47012234D6D6805F48034022532
:1005600005EB92421CB9214D554305600BE01D4D32
:100570006D6805F400351DB11C4D5543056002E062
:10058000194D5543056002E0174D056000BF00BFDF
:10059000144D6D6805F0F0010909154D6B5C056897
:1005A000DD4045600F4D6D6805F4E061090A104DAE
:1005B0006B5C4568DD4085600A4D6D6805F46051EF
:1005C000C90A0B4D6B5C4568DD40C560054D6D6823
:1005D00005F44041890B074D6B5CC568B5FBF3F52D
:1005E000056130BD0010024000127A0000093D0094
:1005F0000000002010000020704710B500F002F845
:1006000010BD00000CB50020019000903348006838
:1006100040F480303149086000BF3048006800F481
:10062000003000900198401C0190009818B9019882
:10063000B0F5A06FF1D12948006800F4003010B186
:100640000120009001E0002000900098012843D193
:100650002348006840F010002149086008460068FF
:1006600020F0030008600846006840F002000860BF
:100670001A4840681949486008464068486008467A
:10068000406840F4806048600846406820F47C1070
:1006900048600846406840F4E81048600846006832
:1006A00040F08070086000BF0C48006800F00070E7
:1006B0000028F9D00948406820F003000749486045
:1006C0000846406840F00200486000BF03484068A8
:1006D00000F00C000828F9D10CBD00000010024009
:1006E000002002407047000010B51348006840F039
:1006F00001001149086008464068104908400E4949
:100700004860084600680E4908400B4908600846E2
:10071000006820F4802008600846406820F4FE004D
:1007200048604FF41F008860FFF767FF4FF00060DC
:100730000449086010BD0000001002400000FFF8EE
:10074000FFFFF6FE08ED00E010B50121064800F0BD
:1007500035F840B105480068401C04490860012193
:10076000014800F01CF810BD0010004014000020EB
:1007700010B50121064800F021F840B10548006895
:10078000401C044908600121014800F008F810BD30
:100790000010004014000020CA4302827047CA4380
:1007A0000282704721B1028842F00102028004E017
:1007B00002884FF6FE731A400280704702460020FE
:1007C000138A0B400BB1012000E0002070471AB1E2
:1007D00083890B43838102E083898B438381704744
:1007E000002202881D4B98420ED01D4B98420BD020
:1007F000B0F1804F08D01B4B984205D01A4B98425D
:1008000002D01A4B984204D14FF68F731A404B888E
:100810001A43174B984207D0164B984204D04FF614
:10082000FF431A40CB881A4302808B8883850B884C
:1008300003850A4B98420BD0094B984208D00E4BC7
:10084000984205D00D4B984202D00D4B984201D1F1
:100850000B7A03860123838270470000002C01403D
:10086000003401400004004000080040000C00403B
:1008700000100040001400400040014000440140CE
:10088000004801400EB5FFF7C0FD01211020FFF721
:1008900029FE4720ADF8000040F2E730ADF8040033
:1008A00069460848FFF79CFF01210648FFF774FFDF
:1008B000012211460348FFF78AFF01210148FFF793
:1008C00071FF0EBD0010004010B540F225510848E0
:1008D00000F051F850B1064800F008F905490860E9
:1008E0000846008881B2024800F005F910BD0000FA
:1008F000003801401800002021B1828942F40052E2
:10090000828104E082894DF6FF731A40828170472C
:100910001FB5FFF723FDFFF7CFFD4FF4E130009047
:100920000020ADF80C000C20ADF80A000020ADF856
:100930000800ADF80600ADF804006946064800F06E
:1009400069F8012240F22551034800F03EF80121E8
:100950000148FFF7D1FF1FBD0038014002460020CB
:10096000B1F5007F00D100BF13880B400BB101200F
:1009700000E00020704770B50246002400230025E7
:10098000002040F66A16B14200D100BFC1F3421503
:1009900001F01F03012606FA03F3012D02D1968907
:1009A000334006E0022D02D1168A334001E0968AD8
:1009B00033400C12012606FA04F41688344013B1B1
:1009C0000CB1012000E0002070BDF0B5034600240A
:1009D00000260025002040F66A17B94200D100BF6A
:1009E0001846C1F3421401F01F06012707FA06F565
:1009F000012C01D10C3004E0022C01D1103000E0B8
:100A000014301AB107682F43076002E00768AF434C
:100A10000760F0BD2DE9F04786B005460E4600247C
:100A2000A24600BFA1460027B08900B100BF2F46F3
:100A30002C8A4CF6FF700440F08804432C82AC8969
:100A40004EF6F3100440B088318908437189084399
:100A50000443AC81AC8A4FF6FF400440B0890443A4
:100A6000AC8201A8FFF75EFD1F48874202D1DDF886
:100A700010A001E0DDF80CA0A88900F4004040B10E
:100A80000AEBCA0000EB0A1031684900B0FBF1F82C
:100A900007E00AEBCA0000EB0A1031688900B0FBDE
:100AA000F1F86420B8FBF0F004012009642101FB97
:100AB0001089A88900F4004040B1322000EBC90041
:100AC000B0FBF1F000F00700044308E0322000EB37
:100AD00009106421B0FBF1F000F00F0004432C81F9
:100AE00006B0BDE8F0870000003801400146888864
:100AF000C0F308007047C1F308028280704700BF4E
:100B0000FEE700000FB4054B10B503A9044A029894
:100B100000F018F810BC5DF814FB0000FD0C000894
:100B20001C00002002E008C8121F08C1002AFAD1E8
:100B300070477047002001E001C1121F002AFBD15D
:100B4000704700002DE9FF4F8BB09A460F460546CF
:100B5000002606E025280BD052460D9990476D1CC3
:100B6000761C28780028F5D10FB03046BDE8F08F0C
:100B70000024A0460122604900E0044315F8013F2B
:100B8000203B02FA03F00842F7D128782E2817D12B
:100B900015F8010F44F004042A280ED06FF02F023C
:100BA0002878A0F1300109290AD808EB880102EB66
:100BB000410100EB01086D1CF2E757F8048B6D1C36
:100BC000287869283ED006DC0028CDD063280BD0D9
:100BD000642804D136E0732810D075284BD05246D3
:100BE0000D999047761C85E017F8040B8DF80000EE
:100BF00000208DF80100E946012003E057F8049B2E
:100C00004FF0FF3061074FF0000401D40AE0641C8C
:100C100044450DDA8442FADB19F804100029F6D1B4
:100C200006E0641C8442FCDB19F804100029F8D1AA
:100C3000264404E019F8010B52460D999047641EB2
:100C4000F8D257E001CF4FF00A0B002802DA4042F9
:100C50002D2102E0210504D52B218DF8241001213E
:100C600003E0E10705D02021F7E70DF12009089105
:100C70000CE00021F9E701CF4FF00A0BF9E75946E4
:100C8000FFF784FA01F1300209F8012D0028F6D1AE
:100C9000ADEB090000F1200B600701D44FF0010813
:100CA000D84502DDA8EB0B0000E0002080460024C0
:100CB00006E009A85246005D0D999047641C761C19
:100CC00008988442F5DB04E0302052460D999047A5
:100CD000761CB8F10001A8F10108F5DC05E019F86F
:100CE000010B52460D999047761CBBF10001ABF108
:100CF000010BF4DC6D1C34E70928010070B50446D3
:100D00000D46E1B20548FFF7F6FE00BF802103481B
:100D1000FFF724FE0028F9D0204670BD00380140BE
:100D200008B501210820FFF7EDFB4FF40070ADF886
:100D3000000003208DF8020010208DF803006946A2
:100D40000148FFF77BFA08BD000C014088B01C2267
:100D500023A101A8FFF708FAFFF73EFBFFF726FBE8
:100D600001212648FFF7F7FA20212448FFF7F1FA7E
:100D7000FFF788FDFFF7CCFD01A921A0FFF7C2FE18
:100D8000FFF7CEFF4FF400711C48FFF7E4FA26E0AE
:100D90001C480068012802D0022812D108E0012175
:100DA0001648FFF7D6FA20211448FFF7D4FA08E0D6
:100DB00001211248FFF7CFFA20211048FFF7C9FAA6
:100DC00000BF00BF10480068B0F57A7F07D10D481A
:100DD00001680EA0FFF796FE00200B490860D7E7D8
:100DE000C7EBCAE4C8EBD2AAC1C1B5C4B5C6A3BAA1
:100DF000C0FDC8E7A3BA472F522F4200000C0140A4
:100E000025730000180000201400002025640A004B
:100E1000300E00080000002020000000240B000815
:100E2000500E00082000002000040000340B0008D1
:100E30000000000001020304010203040607080980
:100E4000020406080000000000000000000000008E
:0400000508000131BD
:00000001FF
