:020000040800F2
:10000000F01B002045010008F9030008C3030008A5
:10001000F5030008410200087B1A000800000000F8
:100020000000000000000000000000009D17000814
:100030004502000800000000B7010008B1180008E0
:100040005F0100085F0100085F0100085F01000810
:100050005F0100085F010008490200085F01000815
:100060005F0100085F0100085F0100085F010008F0
:100070005F0100085F0100085F0100085F010008E0
:100080005F0100085F0100085F0100085F010008D0
:100090005F0100085F0100085F0100085F010008C0
:1000A0005F0100085F0100085F0100085F010008B0
:1000B0005F0100085F0100085F0100085F010008A0
:1000C0005F0100085F0100085F0100085F01000890
:1000D0005F010008E51900085F0100085F010008E2
:1000E0005F0100085F0100085F0100085F01000870
:1000F0005F0100085F0100085F0100085F01000860
:100100005F0100085F0100085F0100085F0100084F
:100110005F0100085F0100087D190008A5190008AB
:100120005F0100085F0100085F0100085F0100082F
:10013000DFF80CD000F072F800480047C91A000838
:10014000F01B00200648804706480047FEE7FEE710
:10015000FEE7FEE7FEE7FEE7FEE7FEE7FEE7FEE777
:100160001D19000831010008EFF3108072B67047C6
:1001700080F310887047204C204D25604FF000041C
:1001800084F309881E4C4FF0010525701D4C4FF07B
:100190008055256062B6FEE730B41A4C4FF08055AA
:1001A000256030BC704730B4164C4FF08055256048
:1001B00030BC704700BF72B6EFF3098028B1203819
:1001C00080E8F00F10490968086000B50F488047C3
:1001D0005DF804EB0E480F490A7802700A480E4990
:1001E0000A680260106890E8F00F203080F30988F8
:1001F0004EF0040E62B6704720ED00E00000FFFFF5
:100200004E00002004ED00E054000020D50B000853
:1002100043000020440000205C000020064C074DF5
:1002200006E0E06840F0010394E8070098471034C6
:10023000AC42F6D3FFF780FF2C1C00084C1C0008D2
:1002400000BFFEE77047000010B5012000F014F871
:1002500028B10548006880F00100034908600120CA
:1002600000F004F810BD00000C0C014001490860CA
:100270007047000014040140014600200022074B93
:100280001B6803EA0102054B14331B680B4013B1D2
:100290000AB1012000E00020704700000004014086
:1002A0002DE9F0410246002500260020002300240D
:1002B000002791F803C00CF00F0591F803C00CF073
:1002C000100CBCF1000F03D091F802C04CEA0505F8
:1002D00091F800C0BCF1000F31D0146800202BE071
:1002E0004FF0010C0CFA00F3B1F800C00CEA030661
:1002F0009E4220D183004FF00F0C0CFA03F7BC4351
:1003000005FA03FC4CEA040491F803C0BCF1280F81
:1003100006D14FF0010C0CFA00FCC2F814C00AE040
:1003200091F803C0BCF1480F05D14FF0010C0CFA55
:1003300000FCC2F810C0401C0828D1D31460B1F8EA
:1003400000C0BCF1FF0F34DD546800202EE000F146
:10035000080C4FF0010808FA0CF3B1F800C00CEAE1
:1003600003069E4221D183004FF00F0C0CFA03F7D5
:10037000BC4305FA03FC4CEA040491F803C0BCF149
:10038000280F05D100F1080C08FA0CF8C2F8148007
:1003900091F803C0BCF1480F07D100F1080C4FF0F1
:1003A000010808FA0CF8C2F81080401C0828CED3C7
:1003B0005460BDE8F08110B501F082FA00F004F855
:1003C00010BD00BFFEE7000008B50121082001F0C4
:1003D000D5F90120ADF8000003208DF802001020AF
:1003E0008DF8030069460248FFF75AFF08BD000078
:1003F000000C014000BFFEE77047000002490143C6
:10040000024A1160704700000000FA050CED00E0A0
:100410002DE9F04105460E461446002711480078A4
:1004200018B112202070BDE8F0812878012808D08A
:10043000022807D0032802D0042804D100E000BF1E
:1004400000BF00BF02E001202070ECE700BFFFF713
:100450008BFE07466E613846FFF78AFE002020704B
:1004600000BFE0E74100002010B500F017F800F0F1
:10047000DDFE00F005FF00F025FF00F0A7FE00F014
:1004800079FE00F0B9FF00F0E3FF00F05BFF00F041
:1004900081FF00F06FFC00F007F810BD002001495B
:1004A000088070472400002070470000064800784C
:1004B000012808D105480078FF2804D203480078B5
:1004C000401C0249087070474E0000204100002087
:1004D00010B500241A480078012830D1FFF744FEF7
:1004E00004461848007820B116480078401E154987
:1004F000087014480078F8B913480078E0B901F0A2
:1005000009F812481249097850F821001149086089
:100510000F4800781049097888420DD00D480068CE
:10052000C06B401C0B490968C8630C480068401C3C
:100530000A490860FFF737FE2046FFF719FE10BD95
:100540004E0000204100002042000020C809002089
:10055000440000205C000020430000202800002010
:1005600010B500240B480078012811D1FFF7FCFDDD
:1005700004460948007840B908480078FF2804D2AA
:1005800006480078401C054908702046FFF7F0FD3A
:1005900010BD00004E00002041000020420000205D
:1005A00010B5002413480078012821D1FFF7DCFDA5
:1005B000044611480078C0B10F480078401E0E492B
:1005C00008700846007860B90C48007828B92046C1
:1005D000FFF7CEFD00F064FF0AE02046FFF7C8FDFC
:1005E00006E02046FFF7C4FD02E02046FFF7C0FD0D
:1005F00010BD00004E0000204200002041000020FD
:1006000070B5054600261048007808B1002070BD7E
:10061000FFF7AAFD06460D480468006820B10B48A4
:1006200000684068094908603046FFF7A1FD4CB1F9
:100630000320207025810020606005A060612046B5
:1006400000F08AFD2046E2E7410000202C00002057
:100650003F0000002DE9F04105460E4614460027F4
:100660002878032803D001202070BDE8F0813248AB
:10067000007810B102202070F7E73048007810B100
:100680000D202070F1E7FFF76FFD0746288940B184
:100690002889401E28813846FFF76AFD0020207017
:1006A000E3E72748006890F8340040F0010024494F
:1006B000096881F8340000202149096881F8350073
:1006C0001F4800680663284600F008FD3846FFF71B
:1006D0004FFD00F0E5FEFFF747FD074618480068AC
:1006E00090F8350020B1012809D0022806D102E097
:1006F000002020700BE00E20207008E000BF29468B
:100700000F48006800F0B8FC0A20207000BF00BF4E
:1007100000200B49096881F834000949096881F80B
:10072000350007490968C861054909680862384603
:10073000FFF71EFD00BF98E74100002042000020A7
:100740005400002070B5044600252078032801D00D
:10075000012070BDFFF708FD0546A07A60B10023B7
:1007600001221946204600F03FFC2846FFF700FD15
:1007700000F096FE0020ECE720894FF6FF718842DA
:1007800007D22089401C20812846FFF7F1FC002079
:10079000DFE72846FFF7ECFC3320DAE710B50B481B
:1007A000007890B900F0B6FE094800780949087051
:1007B00009480749097850F82100084908600846A7
:1007C000006807490860FFF7D6FC10BD4E00002006
:1007D0004400002043000020C80900205C000020E5
:1007E0005400002010B50024022000F0F5F9FFF7B6
:1007F000BBFC044600200B4908602046FFF7B8FC0C
:100800000A2000F0E9F9FFF7AFFC0446054800684C
:10081000054908600120054908702046FFF7A8FC3B
:1008200010BD0000500000203800002040000020D3
:10083000704700002DE9FE4F06460F4690461C46C5
:100840004FF00009FFF790FC81461F48007828B15F
:100850004846FFF78DFC3C20BDE8FE8F1B4850F852
:10086000240060BB0120194941F824004846FFF7E5
:100870007FFC002342463946304600F009F98246A3
:100880000020009001900346024651460290204607
:1008900000F056FE054635B90D48007801280CD108
:1008A00000F0FEFD09E0FFF75FFC814600200749EC
:1008B00041F824004846FFF75BFC2846CCE7484651
:1008C000FFF756FC2820C7E741000020C809002098
:1008D0004E0000202DE9F04F85B081468A469346B0
:1008E0001C46DDE90F78129D00200390FFF73CFCC9
:1008F00003902348007830B10398FFF739FC3C207F
:1009000005B0BDE8F08F1F4850F8240088BB0120D7
:100910001C4941F824000398FFF72AFC2A46414667
:10092000384600F01DFF2B465A465146484600F017
:10093000AFF804901198CDE9008002953A46204620
:100940000E9B049900F0FCFD064636B90E4800786F
:1009500001280CD100F0A4FD09E0FFF705FC03908D
:100960000020084941F824000398FFF701FC3046B5
:10097000C6E7FFE70398FFF7FBFB2820C0E700006E
:1009800041000020C80900204E0000207047704739
:100990002DE9F04106460F4614464FF00008154871
:1009A000007818B112202070BDE8F081FFF7DCFB61
:1009B0008046FF2E03D11048006890F836600F483B
:1009C00050F826502DB94046FFF7D2FB4320207047
:1009D000EAE7012D05D14046FFF7CAFB432020700E
:1009E000E2E72F654046FFF7C3FB0020207000BF01
:1009F000DAE700004100002054000020C809002070
:100A0000704700002DE9F04707460D464FF0000AF9
:100A1000002028606860FFF7A7FB8246FF2F03D104
:100A20001948006890F83670184850F827402CB9DB
:100A30005046FFF79DFB4320BDE8F087012C04D111
:100A40005046FFF795FB4320F6E7207C00F00100BD
:100A500020B95046FFF78CFB4520EDE70026D4F87F
:100A60000C90D4F808805046FFF782FB00E0761C1B
:100A700058F8041B0029FAD0B0002860A9EB060042
:100A8000800068600020D7E754000020C8090020DB
:100A900070B5044610464FF080750560051F284666
:100AA0002C606FF00106051F28462E604FF01236AD
:100AB000051F28462E604FF00336051F28462E607E
:100AC0004FF00236051F28462E607610051F284677
:100AD0002E60051F284629604FF01136051F284655
:100AE0002E604FF01036051F28462E604FF0093655
:100AF000051F28462E604FF00836051F28462E6039
:100B00004FF00736051F28462E604FF00636051FAA
:100B100028462E604FF00536051F28462E604FF000
:100B20000436051F28462E6070BD00002DE9F041F7
:100B300005464FF00008FFF717FB8046FF2D05D153
:100B40002048006890F83650012608E01D480068EB
:100B500090F83600A84201D1012600E000261A488C
:100B600050F825402CB94046FFF702FB4820BDE86D
:100B7000F081012C04D14046FFF7FAFA4320F6E752
:100B800094F838701148C05D94F8391088430F49C3
:100B9000C8550846C05D30B994F83A100C48007842
:100BA00088430B49087094F8340040F0080084F83A
:100BB00034004046FFF7DCFA012E01D100F070FC52
:100BC0000020D4E754000020C8090020460000207F
:100BD000450000207047000070B505460026174804
:100BE000007800B170BD1648007800B1FAE71DB377
:100BF000FFF7BAFA06461348006890F838401248E2
:100C0000005D1049096891F8391088430E4908556C
:100C10000846005D40B90B48006890F83A100B4850
:100C20000078884309490870064800680563304623
:100C3000FFF79EFA00F034FC00BFD3E7410000202C
:100C40004200002054000020460000204500002003
:100C500070B5002600F072F8FFF786FA06463148B4
:100C60000068401C2F4908603046FFF781FA2E4883
:100C70000078012853D12D48007820B1012804D0F4
:100C8000022809D103E001250BE0002509E0012538
:100C900001202649087004E001250020234908703E
:100CA00000BF00BF05B970BD2148046833E0FFF7FD
:100CB0005BFA0646206B50B3206B401E2063206B0E
:100CC00028BB94F8340000F0370040B114F8340F1A
:100CD00000F0C800207001206070343C02E0002069
:100CE00084F8350094F8340000F0080078B93834FE
:100CF000A0781049097808430E49087020780E49F9
:100D0000085C6178084314F838190B4A5054646938
:100D10003046FFF72DFA94F836003F28C7D100BFC0
:100D2000C1E70000700000204E0000206400002099
:100D300060000020450000204600002010B5074854
:100D40000088401C05490880084600880A2803D30B
:100D50000020088000F004F810BD000024000020EE
:100D600010B503480068FFF7EDFC0446204610BDAF
:100D700080000020F8B54FF42071284800F032FBC5
:100D80004021274800F02EFB002514E0681C86B2A5
:100D900005EB8500214901EBC00406EB860001EB61
:100DA000C00764202070002084F82500E7601DA0A3
:100DB0002062681C85B20F2DE8D305EB850017492A
:100DC00001EBC00464202070002084F82500E0605E
:100DD00014A02062002014490860144908801020E3
:100DE000134908800D48134908600120FFF708FCEB
:100DF000114908600020FFF703FC104908606A46AB
:100E00000FA10D480068FFF703FB6A4611A10B48CC
:100E10000068FFF7FDFA00F027F8F8BD3013002056
:100E2000B01700203F00000078000020760000206E
:100E300074000020840000207C000020800000203E
:100E400075432F4F532D494920546D724C6F636B7E
:100E50000000000075432F4F532D494920546D72F7
:100E60005369676E616C000000B587B003200021F4
:100E700080220A4BCDE90132CDE903104FF6FD7017
:100E80000B46074A00900748FFF724FD06AA06A173
:100E90000020FFF77DFD07B000BD0000B015002069
:100EA000AC170020250F000875432F4F532D4949DB
:100EB00020546D720000000070B50B46032580F8C9
:100EC0002550012B05D1154EC5693668354445615D
:100ED0000CE085692DB9114EC56936683544456108
:100EE00004E00E4E8569366835444561057D05F0A0
:100EF00007040B4D05EBC4010D682DB908600025F2
:100F0000C56001258D8006E00A680860C260106136
:100F10008D886D1C8D800025056170BD78000020D6
:100F2000B017002008B500BF00BF6A4600211A486C
:100F30000068FFF78FFBFFF713FB18480068401CA1
:100F4000164908600846007800F00708144800EBCE
:100F5000C8073C681AE0E668104960690968884279
:100F600013D1204600F01EF894F82400022804D182
:100F700001212046FFF7A0FF02E0022084F82500AF
:100F8000656815B12046A168A8473446002CE2D117
:100F9000FFF706FBC9E70000800000207800002072
:100FA000B017002030B5057D05F007040D4D05EBA9
:100FB000C4031D68854205D1C168196039B1002597
:100FC0000D6104E00169C268CA6002B111610125C6
:100FD00080F825500025C56005619D886D1E9D80A7
:100FE00030BD0000B01700202DE9F04F05460F4638
:100FF00090469946A87A1C490E5C05F10B00805D6D
:1010000011F800B00BEBC60000F0FF0A174850F8CB
:101010002A4000202434E0602760207C20EA080079
:10102000207484F81190207C243C00F0080068B9FA
:1010300094F83A000E49097808430D4908700D48A4
:10104000805D94F8391008430A498855294620469E
:1010500000F012F8206A20B12046216A00F021F841
:10106000E5615046BDE8F08F2C1B0008C809002040
:10107000450000204600002010B590F8382001F10E
:101080000B039B5C90F83940A34301F10B04A3547C
:1010900023469B5C23B98B7A90F83A40A3438B722A
:1010A00010BDF0B5024612F8384F95785678383AA8
:1010B0000B4618680FE000F10B073F5DB74300F1E6
:1010C0000B0C0CF8047067463F5D17B9877AAF4385
:1010D00087721B1D18680028EDD1F0BD10B51B4AA2
:1010E0001268D061194A126892F8383000F10B0288
:1010F000D25C164B1B6893F839301A43134B1B68AC
:1011000093F8384000F10B031A55827A0F4B1B6895
:1011100093F83A301A4382720C4A126892F83810E7
:101120000B4A525C094B1B6893F839309A43084BC1
:101130005A541A46525C42B9044A126892F83A303C
:10114000044A12789A43034B1A7010BD54000020D1
:101150004600002045000020014600228A7200203F
:1011600005E0002301F10B021354421CD0B2082801
:10117000F7D370472DE9F0415021114800F032F9C2
:1011800000250DE0681C86B20D4800EB051400EB4D
:1011900006170020207067600AA0E060681C85B216
:1011A000042DEFD3064800EB05140020207060608A
:1011B00004A0E060024804490860BDE8F081000036
:1011C000780500203F0000003000002070B5F021BD
:1011D000134800F007F9002411E0601C85B204EB0D
:1011E00044000F4901EBC00305EB450001EBC006CD
:1011F000002018705E600BA05861601C84B2092C3E
:10120000EBD304EB4400064901EBC0030020187047
:10121000586004A0586108460349086070BD00008A
:10122000880400203F0000002C00002000200A4914
:1012300008600A4908700A4908700A4908700A4992
:1012400008700A4908600A4908600A4908600A49A2
:1012500008600A49087070477000002041000020B3
:10126000420000204F0000204E00002028000020F7
:10127000500000203C0000203800002040000020EA
:1012800000210A4A1170002004E00021084A11548C
:10129000411CC8B20828F8D30021064A1170064A3A
:1012A0001170064A1160064A11607047450000201F
:1012B0004600002043000020440000205C00002085
:1012C0005400002070B54FF4F261194800F08AF81C
:1012D0004FF48071174800F085F8002413E0601C7B
:1012E000C5B204EB440000EBC400114901EBC0039C
:1012F00005EB450000EBC50001EBC0065E610EA0EA
:101300001865601CC4B2152CE9D304EB440000EB53
:10131000C400074901EBC0030020586106A018650E
:1013200000200649086002480549086070BD0000B9
:10133000C80A0020C80900203F000000600000200B
:101340005800002000B587B00320002180220A4BFE
:10135000CDE90132CDE903104FF6FF703F23074A74
:1013600000900748FFF7B6FA06AA06A13F20FFF74C
:101370000FFB07B000BD0000C8070020C409002013
:101380007516000875432F4F532D49492049646C49
:101390006500000000B587B00320002180220A4BC1
:1013A000CDE90132CDE903104FF6FE703E23074A26
:1013B00000900748FFF78EFA06AA06A13E20FFF725
:1013C000E7FA07B000BD0000C8050020C4070020F0
:1013D0009D16000875432F4F532D494920537461C2
:1013E0007400000004E0002200F8012B4A1E91B2B4
:1013F0000029F8D17047000070B578211148FFF737
:10140000F1FF00240EE004EB44000E4901EBC0059F
:10141000601C00EB400001EBC00068600AA068613E
:10142000601C84B2042CEED304EB4400054901EBAC
:10143000C0050020686004A0686108460349086090
:1014400070BD0000581200203F000000680000201E
:101450002DE9F04160211048FFF7C4FF00240DE0A2
:10146000601C86B204EB44000B4901EBC00506EB9F
:10147000460001EBC0072F60601C84B2032CEFD341
:1014800004EB4400044901EBC00500202860084635
:1014900002490860BDE8F081D01200206C000020F5
:1014A00010B50024FEF760FE044613480078F8B932
:1014B00012480078E0B900F02DF811481149097878
:1014C00050F82100104908600E4800780F4909784B
:1014D00088420DD00C480068C06B401C0A4909685E
:1014E000C8630B480068401C09490860FEF754FEB9
:1014F0002046FEF73DFE10BD4100002042000020C6
:10150000C8090020440000205C00002043000020A7
:10151000280000200649074A1278885C0649095CC1
:10152000034A515C01EBC001044A1170704700008E
:101530002C1B00084500002046000020440000202D
:101540002DE9F84F05460F4690469946DDE90AAB6E
:1015500000200090FEF708FE00903F480468002C31
:1015600075D01C3454F8080C3B4908600098FEF70D
:10157000FFFD44F81C7CA576002020766076606133
:1015800044F818BC44F810AC44F8148C0C9824F8B7
:101590000C0C24F80A9C0020E077E810207705F076
:1015A0000700E076217F01208840A077E17E0120BE
:1015B00088406077002020606060E060A06020626A
:1015C000A0626062E062206324A060631C3C00268D
:1015D00006E0002104F1540040F82610701CC6B249
:1015E000002EF6D02046FFF723F92046FFF7CEF96C
:1015F000FEF7BAFD00901A4840F8254019480068E7
:1016000060610020A0611748006810B115480068AB
:101610008461144804603834A07813490978084379
:101620001149087020781149085C6178084314F862
:1016300038190E4A50540E480078401C0C49087066
:101640000098FEF795FD0020BDE8F88FFFE70098B1
:10165000FEF78EFD4220F7E7580000203F00000013
:10166000C80900206000002045000020460000203E
:101670004F000020002400BF00BFFEF775FD0446A8
:1016800005480068401C044908602046FEF770FDCC
:10169000FFF77DF9F1E7000050000020002400BFB3
:1016A00002E01420FFF798FA194800780028F8D0D3
:1016B000184800686421B0FBF1F01649086008463C
:1016C000006828B9002014490870FF20FFF72EFA9F
:1016D00000BFFEF749FD0446104800681049086045
:1016E00000200E4908602046FEF742FD0C480068C5
:1016F00008490968B0FBF1F0C0F1640006490870C0
:10170000FFF77EF900F00EF80A20FFF765FAE0E730
:10171000400000203800002034000020500000204D
:101720003C0000207CB5002514E069462846FFF700
:1017300069F9064666B9094850F8254044B1012CBC
:1017400006D0D4E9020100EB8100A0640198E064B6
:10175000681CC5B23F2DE8D97CBD0000C809002037
:1017600002F0010343B102F002032BB102E0491E73
:10177000002308C00029FAD17047000029B1064AA9
:1017800092690243044B9A6104E0034A92698243DE
:10179000014B9A617047000000100240704710B57D
:1017A00000F002F810BD00000CB500200190009080
:1017B0003348006840F480303149086000BF304849
:1017C000006800F4003000900198401C01900098DF
:1017D00018B90198B0F5A06FF1D12948006800F45C
:1017E000003010B10120009001E00020009000982E
:1017F000012843D12348006840F0100021490860C7
:101800000846006820F0030008600846006840F0C1
:10181000020008601A484068194948600846406854
:1018200048600846406840F4806048600846406868
:1018300020F47C1048600846406840F4E810486096
:101840000846006840F08070086000BF0C480068DF
:1018500000F000700028F9D00948406820F003002B
:10186000074948600846406840F00200486000BFF1
:101870000348406800F00C000828F9D10CBD0000B6
:101880000010024000200240042808D14FF0E0215F
:10189000096941F004014FF0E022116107E04FF0C7
:1018A000E021096921F004014FF0E0221161704745
:1018B00010B5FEF7FBFDFFF7CBF9FEF709FE10BDF3
:1018C00010B56FF00400FFF7DFFF10480088C0F389
:1018D000C7000F4908700D4800680E49B0FBF1F4CD
:1018E00042F2107044430A200B4908804FF0E02078
:1018F000006940F002004FF0E021086108464461B1
:10190000006940F00100086110BD000000000020E7
:101910001C00002000127A001E00002010B51348A1
:10192000006840F00100114908600846406810490D
:1019300008400E494860084600680E4908400B49B7
:1019400008600846006820F4802008600846406867
:1019500020F4FE0048604FF41F008860FFF71FFF6F
:101960004FF000600449086010BD00000010024004
:101970000000FFF8FFFFF6FE08ED00E010B50121C2
:10198000064800F026F840B105480068401C0449AC
:1019900008600121014800F019F810BD0010004056
:1019A0001400002010B50121064800F012F840B1E3
:1019B00005480068401C044908600121014800F006
:1019C00005F810BD0010004014000020CA43028238
:1019D000704702460020138A0B400BB1012000E043
:1019E0000020704710B540F22551084800F012F869
:1019F00050B1064800F038F80549086008460088EC
:101A000081B2024800F035F810BD000000380140F6
:101A10001800002070B50246002400230025002095
:101A200040F66A16B14200D100BFC1F3421501F081
:101A30001F03012606FA03F3012D02D196893340D4
:101A400006E0022D02D1168A334001E0968A334027
:101A50000C12012606FA04F41688344013B10CB1B6
:101A6000012000E0002070BD01468888C0F3080016
:101A70007047C1F308028280704700BFFEE702E0B2
:101A800008C8121F08C1002AFAD170477047002009
:101A900001E001C1121F002AFBD1704711E0094883
:101AA000006880F00100074908600A20FFF794F8F9
:101AB0000448006880F00100024908600A20FFF72E
:101AC0008BF8ECE70C0C014010B5FEF774FC4FF4FA
:101AD000A060FEF793FCFEF7C7FC0323044A002135
:101AE0000448FEF7A7FEFEF759FE002010BD0000D7
:101AF00084020020F91A000870B50446002500BFD2
:101B0000FEF770FEFEF730FB05460423054A002170
:101B10000548FEF78FFE0320FFF708F82846FEF77A
:101B200027FB70BD840400209D1A000800000100FE
:101B30000200010003000100020001000400010096
:101B40000200010003000100020001000500010085
:101B50000200010003000100020001000400010076
:101B60000200010003000100020001000600010064
:101B70000200010003000100020001000400010056
:101B80000200010003000100020001000500010045
:101B90000200010003000100020001000400010036
:101BA0000200010003000100020001000700010023
:101BB0000200010003000100020001000400010016
:101BC0000200010003000100020001000500010005
:101BD00002000100030001000200010004000100F6
:101BE00002000100030001000200010006000100E4
:101BF00002000100030001000200010004000100D6
:101C000002000100030001000200010005000100C4
:101C100002000100030001000200010004000100B5
:101C20000200010003000100020001004C1C00083A
:101C300000000020880000007E1A0008D41C000864
:101C400088000020681B00008E1A000800A24A04C9
:101C5000000000000000000001020304060708095C
:101C60000000000000000000000000000000000074
:101C70000000000000000000000000000000000064
:101C80000000000000000000000000000000000054
:101C90000000000000000000000000000000000044
:101CA0000000000000000000000000000000000034
:101CB0000000000000000000000000000000000024
:101CC0000000000000000000000000000000000014
:041CD0000000000010
:0400000508000131BD
:00000001FF
