:020000040800F2
:10000000D829002045010008B1020008A902000813
:10001000AD020008410200081716000800000000A9
:10002000000000000000000000000000CB130008EA
:100030004502000800000000B7010008B5140008E0
:100040005F0100085F0100085F0100085F01000810
:100050005F0100085F010008490200085F01000815
:100060005F0100085F0100085F0100085F010008F0
:100070005F0100085F0100085F0100085F010008E0
:100080005F0100085F0100085F0100085F010008D0
:100090005F0100085F0100085F0100085F010008C0
:1000A0005F0100085F0100085F0100085F010008B0
:1000B0005F0100085F0100085F0100085F010008A0
:1000C0005F0100085F0100085F0100085F01000890
:1000D0005F010008811500085F0100085F0100084A
:1000E0005F0100085F0100085F0100085F01000870
:1000F0005F0100085F0100085F0100085F01000860
:100100005F0100085F0100085F0100085F0100084F
:100110005F0100085F01000819150008411500087B
:100120005F0100085F0100085F0100085F0100082F
:10013000DFF80CD000F072F8004800473D160008C8
:10014000D82900200648804706480047FEE7FEE71A
:10015000FEE7FEE7FEE7FEE7FEE7FEE7FEE7FEE777
:10016000B914000831010008EFF3108072B670472F
:1001700080F310887047204C204D25604FF000041C
:1001800084F309881E4C4FF0010525701D4C4FF07B
:100190008055256062B6FEE730B41A4C4FF08055AA
:1001A000256030BC704730B4164C4FF08055256048
:1001B00030BC704700BF72B6EFF3098028B1203819
:1001C00080E8F00F10490968086000B50F488047C3
:1001D0005DF804EB0E480F490A7802700A480E4990
:1001E0000A680260106890E8F00F203080F30988F8
:1001F0004EF0040E62B6704720ED00E00000FFFFF5
:100200003600002004ED00E03C000020110A000848
:100210002B0000202C00002044000020064C074D3D
:1002200006E0E06840F0010394E8070098471034C6
:10023000AC42F6D3FFF780FFA0170008C0170008F4
:1002400000BFFEE77047000010B5012000F014F871
:1002500028B10548006880F00100034908600120CA
:1002600000F004F810BD00000C0C014001490860CA
:100270007047000014040140014600200022074B93
:100280001B6803EA0102054B14331B680B4013B1D2
:100290000AB1012000E00020704700000004014086
:1002A00010B501F008F910BD00BFFEE700BFFEE782
:1002B0007047000002490143024A11607047000084
:1002C0000000FA050CED00E02DE9F04105460E4670
:1002D000144600271148007818B112202070BDE89C
:1002E000F0812878012808D0022807D0032802D0FE
:1002F000042804D100E000BF00BF00BF02E00120DD
:100300002070ECE700BFFFF72FFF07466E6138460D
:10031000FFF72EFF0020207000BFE0E7290000203B
:1003200010B500F017F800F0A9FD00F0D1FD00F0C5
:10033000F1FD00F073FD00F045FD00F085FE00F0DA
:10034000AFFE00F027FE00F04DFE00F09FFB00F036
:1003500007F810BD00200149088070470C000020FC
:100360007047000010B500241A480078012830D1E9
:10037000FFF7FAFE04461848007820B116480078C6
:10038000401E1549087014480078F8B913480078E1
:10039000E0B900F0E7FE12481249097850F8210050
:1003A000114908600F4800781049097888420DD03B
:1003B0000D480068C06B401C0B490968C8630C48B5
:1003C0000068401C0A490860FFF7EDFE2046FFF771
:1003D000CFFE10BD36000020290000202A0000209A
:1003E000B01700202C000020440000202B0000202B
:1003F0001000002010B500240B480078012811D10E
:10040000FFF7B2FE04460948007840B90848007872
:10041000FF2804D206480078401C05490870204691
:10042000FFF7A6FE10BD00003600002029000020C6
:100430002A00002010B5002413480078012821D19B
:10044000FFF792FE044611480078C0B10F480078CB
:10045000401E0E4908700846007860B90C480078C4
:1004600028B92046FFF784FE00F042FE0AE020464D
:10047000FFF77EFE06E02046FFF77AFE02E0204608
:10048000FFF776FE10BD0000360000202A00002095
:100490002900002070B5054600261048007808B1F4
:1004A000002070BDFFF760FE06460D480468006836
:1004B00020B10B4800684068094908603046FFF7E2
:1004C00057FE4CB10320207025810020606005A0FC
:1004D0006061204600F068FC2046E2E72900002029
:1004E000140000203F0000002DE9F04105460E46B3
:1004F000144600272878032803D001202070BDE887
:10050000F0813248007810B102202070F7E73048BF
:10051000007810B10D202070F1E7FFF725FE0746A7
:10052000288940B12889401E28813846FFF720FEDF
:1005300000202070E3E72748006890F8340040F07E
:1005400001002449096881F8340000202149096824
:1005500081F835001F4800680663284600F0E6FB76
:100560003846FFF705FE00F0C3FDFFF7FDFD074627
:100570001848006890F8350020B1012809D00228F9
:1005800006D102E0002020700BE00E20207008E071
:1005900000BF29460F48006800F0B2FB0A20207017
:1005A00000BF00BF00200B49096881F834000949E9
:1005B000096881F8350007490968C8610549096873
:1005C00008623846FFF7D4FD00BF98E729000020F5
:1005D0002A0000203C00002010B50B48007890B99C
:1005E00000F0C0FD0948007809490870094807492A
:1005F000097850F821000849086008460068074952
:100600000860FFF7B8FD10BD360000202C00002068
:100610002B000020B0170020440000203C000020E8
:1006200010B50024022000F0F5F9FFF79DFD044607
:1006300000200B4908602046FFF79AFD0A2000F0D1
:10064000E9F9FFF791FD044605480068054908608F
:100650000120054908702046FFF78AFD10BD000003
:1006600038000020200000202800002070470000F3
:100670002DE9FE4F06460F4690461C464FF00009F6
:10068000FFF772FD81461F48007828B14846FFF702
:100690006FFD3C20BDE8FE8F1B4850F8240060BB76
:1006A0000120194941F824004846FFF761FD002365
:1006B00042463946304600F009F982460020009053
:1006C00001900346024651460290204600F060FD2C
:1006D000054635B90D48007801280CD100F008FD19
:1006E00009E0FFF741FD81460020074941F8240059
:1006F0004846FFF73DFD2846CCE74846FFF738FD62
:100700002820C7E729000020B0170020360000206D
:100710002DE9F04F85B081468A4693461C46DDE9B7
:100720000F78129D00200390FFF71EFD03902348D1
:10073000007830B10398FFF71BFD3C2005B0BDE801
:10074000F08F1F4850F8240088BB01201C4941F855
:1007500024000398FFF70CFD2A464146384600F076
:1007600027FE2B465A465146484600F0AFF8049003
:100770001198CDE9008002953A4620460E9B0499D7
:1007800000F006FD064636B90E48007801280CD167
:1007900000F0AEFC09E0FFF7E7FC039000200849F9
:1007A00041F824000398FFF7E3FC3046C6E7FFE773
:1007B0000398FFF7DDFC2820C0E700002900002097
:1007C000B017002036000020704770472DE9F04137
:1007D00006460F4614464FF000081548007818B139
:1007E00012202070BDE8F081FFF7BEFC8046FF2E8E
:1007F00003D11048006890F836600F4850F8265032
:100800002DB94046FFF7B4FC43202070EAE7012DE4
:1008100005D14046FFF7ACFC43202070E2E72F658E
:100820004046FFF7A5FC0020207000BFDAE700007B
:10083000290000203C000020B01700207047000075
:100840002DE9F04707460D464FF0000A00202860CA
:100850006860FFF789FC8246FF2F03D119480068C2
:1008600090F83670184850F827402CB95046FFF7DA
:100870007FFC4320BDE8F087012C04D15046FFF7F0
:1008800077FC4320F6E7207C00F0010020B95046B9
:10089000FFF76EFC4520EDE70026D4F80C90D4F865
:1008A00008805046FFF764FC00E0761C58F8041BF3
:1008B0000029FAD0B0002860A9EB0600800068602B
:1008C0000020D7E73C000020B017002070B5044698
:1008D00010464FF080750560051F28462C606FF0AC
:1008E0000106051F28462E604FF01236051F2846C8
:1008F0002E604FF00336051F28462E604FF002365B
:10090000051F28462E607610051F28462E60051FFD
:10091000284629604FF01136051F28462E604FF0FB
:100920001036051F28462E604FF00936051F284651
:100930002E604FF00836051F28462E604FF0073610
:10094000051F28462E604FF00636051F28462E60EC
:100950004FF00536051F28462E604FF00436051F60
:1009600028462E6070BD00002DE9F04105464FF08D
:100970000008FFF7F9FB8046FF2D05D120480068ED
:1009800090F83650012608E01D48006890F83600BF
:10099000A84201D1012600E000261A4850F825405F
:1009A0002CB94046FFF7E4FB4820BDE8F081012C5C
:1009B00004D14046FFF7DCFB4320F6E794F838709B
:1009C0001148C05D94F8391088430F49C85508464E
:1009D000C05D30B994F83A100C48007888430B4950
:1009E000087094F8340040F0080084F83400404661
:1009F000FFF7BEFB012E01D100F07AFB0020D4E707
:100A00003C000020B01700202E0000202D00002008
:100A10007047000070B5054600261748007800B101
:100A200070BD1648007800B1FAE71DB3FFF79CFBD4
:100A300006461348006890F838401248005D104997
:100A4000096891F8391088430E4908550846005D39
:100A500040B90B48006890F83A100B48007888437A
:100A6000094908700648006805633046FFF780FBB7
:100A700000F03EFB00BFD3E7290000202A00002041
:100A80003C0000202E0000202D000020F8B54FF47F
:100A90002071284800F0CEFA4021274800F0CAFA19
:100AA000002514E0681C86B205EB8500214901EBA6
:100AB000C00406EB860001EBC00764202070002014
:100AC00084F82500E7601DA02062681C85B20F2D08
:100AD000E8D305EB8500174901EBC00464202070C2
:100AE000002084F82500E06014A020620020144952
:100AF0000860144908801020134908800D481349E4
:100B000008600120FFF7C6FC114908600020FFF7CC
:100B1000C1FC104908606A460FA10D480068FFF744
:100B2000D3FB6A4611A10B480068FFF7CDFB00F02C
:100B300027F8F8BD18210020982500203F0000006C
:100B4000600000205E0000205C0000206C0000209F
:100B5000640000206800002075432F4F532D494941
:100B600020546D724C6F636B0000000075432F4F73
:100B7000532D494920546D725369676E616C0000B2
:100B800000B587B00320002180220A4BCDE9013255
:100B9000CDE903104FF6FD700B46074A0090074859
:100BA000FFF7B6FD06AA06A10020FFF70FFE07B06B
:100BB00000BD000098230020942500203D0C000873
:100BC00075432F4F532D494920546D72000000008A
:100BD00070B50B46032580F82550012B05D1154E25
:100BE000C5693668354445610CE085692DB9114EFB
:100BF000C56936683544456104E00E4E856936683E
:100C000035444561057D05F007040B4D05EBC40136
:100C10000D682DB908600025C56001258D8006E0AE
:100C20000A680860C26010618D886D1C8D80002587
:100C3000056170BD600000209825002008B500BF48
:100C400000BF6A4600211A480068FFF74DFCFFF715
:100C5000D1FB18480068401C164908600846007817
:100C600000F00708144800EBC8073C681AE0E66883
:100C7000104960690968884213D1204600F01EF8C7
:100C800094F82400022804D101212046FFF7A0FF98
:100C900002E0022084F82500656815B12046A168AD
:100CA000A8473446002CE2D1FFF7C4FBC9E7000097
:100CB00068000020600000209825002030B5057DE8
:100CC00005F007040D4D05EBC4031D68854205D1F1
:100CD000C168196039B100250D6104E00169C2687D
:100CE000CA6002B11161012580F825500025C56058
:100CF00005619D886D1E9D8030BD000098250020F7
:100D000010B590F8382001F10B039B5C90F8394046
:100D1000A34301F10B04A35423469B5C23B98B7AB4
:100D200090F83A40A3438B7210BD000010B51B4AE7
:100D30001268D061194A126892F8383000F10B023B
:100D4000D25C164B1B6893F839301A43134B1B685F
:100D500093F8384000F10B031A55827A0F4B1B6849
:100D600093F83A301A4382720C4A126892F838109B
:100D70000B4A525C094B1B6893F839309A43084B75
:100D80005A541A46525C42B9044A126892F83A30F0
:100D9000044A12789A43034B1A7010BD3C0000209D
:100DA0002E0000202D000020014600228A72002023
:100DB00005E0002301F10B021354421CD0B20828B5
:100DC000F7D370472DE9F0415021114800F032F976
:100DD00000250DE0681C86B20D4800EB051400EB01
:100DE00006170020207067600AA0E060681C85B2CA
:100DF000042DEFD3064800EB05140020207060603E
:100E000004A0E060024804490860BDE8F0810000E9
:100E1000601300203F0000001800002070B5F02192
:100E2000134800F007F9002411E0601C85B204EBC0
:100E300044000F4901EBC00305EB450001EBC00680
:100E4000002018705E600BA05861601C84B2092CF1
:100E5000EBD304EB4400064901EBC00300201870FB
:100E6000586004A0586108460349086070BD00003E
:100E7000701200203F0000001400002000200A49EA
:100E800008600A4908700A4908700A4908700A4946
:100E900008700A4908600A4908600A4908600A4956
:100EA00008600A4908707047580000202900002097
:100EB0002A0000203700002036000020100000200B
:100EC00038000020240000202000002028000020FE
:100ED00000210A4A1170002004E00021084A115440
:100EE000411CC8B20828F8D30021064A1170064AEE
:100EF0001170064A1160064A116070472D000020EB
:100F00002E0000202B0000202C0000204400002098
:100F10003C00002070B54FF4F261194800F08AF8E7
:100F20004FF48071174800F085F8002413E0601C2E
:100F3000C5B204EB440000EBC400114901EBC0034F
:100F400005EB450000EBC50001EBC0065E610EA09D
:100F50001865601CC4B2152CE9D304EB440000EB07
:100F6000C400074901EBC0030020586106A01865C2
:100F700000200649086002480549086070BD00006D
:100F8000B0180020B01700203F00000048000020EB
:100F90004000002000B587B00320002180220A4BCA
:100FA000CDE90132CDE903104FF6FF703F23074A28
:100FB00000900748FFF7ACFB06AA06A13F20FFF709
:100FC00005FC07B000BD0000B0150020AC170020E4
:100FD000C512000875432F4F532D49492049646CB1
:100FE0006500000000B587B00320002180220A4B75
:100FF000CDE90132CDE903104FF6FE703E23074ADA
:1010000000900748FFF784FB06AA06A13E20FFF7E1
:10101000DDFB07B000BD0000B0130020AC150020C0
:10102000ED12000875432F4F532D49492053746129
:101030007400000004E0002200F8012B4A1E91B267
:101040000029F8D17047000070B578211148FFF7EA
:10105000F1FF00240EE004EB44000E4901EBC00553
:10106000601C00EB400001EBC00068600AA06861F2
:10107000601C84B2042CEED304EB4400054901EB60
:10108000C0050020686004A0686108460349086044
:1010900070BD0000402000203F00000050000020F4
:1010A0002DE9F04160211048FFF7C4FF00240DE056
:1010B000601C86B204EB44000B4901EBC00506EB53
:1010C000460001EBC0072F60601C84B2032CEFD3F5
:1010D00004EB4400044901EBC005002028600846E9
:1010E00002490860BDE8F081B820002054000020CB
:1010F00010B50024FFF738F8044613480078F8B913
:1011000012480078E0B900F02DF81148114909782B
:1011100050F82100104908600E4800780F490978FE
:1011200088420DD00C480068C06B401C0A49096811
:10113000C8630B480068401C09490860FFF72CF899
:101140002046FFF715F810BD290000202A000020D6
:10115000B01700202C000020440000202B000020AD
:10116000100000200649074A1278885C0649095C8D
:10117000034A515C01EBC001044A11707047000042
:10118000A01600082D0000202E0000202C000020BA
:101190002DE9F84F05460F4690469946DDE90AAB22
:1011A00000200090FEF7E0FF00903F480468002C0C
:1011B00075D01C3454F8080C3B4908600098FEF7C1
:1011C000D7FF44F81C7CA57600202076607660610D
:1011D00044F818BC44F810AC44F8148C0C9824F86B
:1011E0000C0C24F80A9C0020E077E810207705F02A
:1011F0000700E076217F01208840A077E17E012072
:1012000088406077002020606060E060A06020621D
:10121000A0626062E062206324A060631C3C002640
:1012200006E0002104F1540040F82610701CC6B2FC
:10123000002EF6D02046FFF719FA2046FFF7C4FA31
:10124000FEF792FF00901A4840F8254019480068C0
:1012500060610020A0611748006810B1154800685F
:101260008461144804603834A0781349097808432D
:101270001149087020781149085C6178084314F816
:1012800038190E4A50540E480078401C0C4908701A
:101290000098FEF76DFF0020BDE8F88FFFE700988B
:1012A000FEF766FF4220F7E7400000203F00000005
:1012B000B0170020480000202D0000202E00002044
:1012C00037000020002400BF00BFFEF74DFF04469A
:1012D00005480068401C044908602046FEF748FFA6
:1012E000FFF773FAF1E7000038000020002400BF88
:1012F00002E01420FFF78EFB194800780028F8D090
:10130000184800686421B0FBF1F0164908600846EF
:10131000006828B9002014490870FF20FFF724FB5B
:1013200000BFFEF721FF044610480068104908601E
:1013300000200E4908602046FEF71AFF0C4800689E
:1013400008490968B0FBF1F0C0F164000649087073
:10135000FFF774FA00F00EF80A20FFF75BFBE0E7F6
:1013600028000020200000201C0000203800002061
:10137000240000207CB5002514E069462846FFF7CC
:101380005FFA064666B9094850F8254044B1012C79
:1013900006D0D4E9020100EB8100A0640198E0646A
:1013A000681CC5B23F2DE8D97CBD0000B0170020F5
:1013B00002F0010343B102F002032BB102E0491E27
:1013C000002308C00029FAD17047704710B500F01B
:1013D00001F810BD0CB50020019000903348006862
:1013E00040F480303149086000BF3048006800F4A4
:1013F000003000900198401C0190009818B90198A5
:10140000B0F5A06FF1D12948006800F4003010B1A8
:101410000120009001E0002000900098012843D1B5
:101420002348006840F01000214908600846006821
:1014300020F0030008600846006840F002000860E1
:101440001A4840681949486008464068486008469C
:10145000406840F4806048600846406820F47C1092
:1014600048600846406840F4E81048600846006854
:1014700040F08070086000BF0C48006800F0007009
:101480000028F9D00948406820F003000749486067
:101490000846406840F00200486000BF03484068CA
:1014A00000F00C000828F9D10CBD0000001002402B
:1014B000002002407047704710B51348006840F0A4
:1014C00001001149086008464068104908400E496B
:1014D0004860084600680E4908400B490860084605
:1014E000006820F4802008600846406820F4FE0070
:1014F00048604FF41F008860FFF768FF4FF00060FE
:101500000449086010BD0000001002400000FFF810
:10151000FFFFF6FE08ED00E010B50121064800F0DF
:1015200026F840B105480068401C044908600121C4
:10153000014800F019F810BD001000400000002024
:1015400010B50121064800F012F840B105480068C6
:10155000401C044908600121014800F005F810BD55
:101560000010004000000020CA430282704702467B
:101570000020138A0B400BB1012000E000207047CF
:1015800010B540F22551084800F012F850B1064855
:1015900000F038F8054908600846008881B2024822
:1015A00000F035F810BD00000038014004000020B4
:1015B00070B50246002400230025002040F66A167C
:1015C000B14200D100BFC1F3421501F01F03012653
:1015D00006FA03F3012D02D19689334006E0022D6D
:1015E00002D1168A334001E0968A33400C1201265C
:1015F00006FA04F41688344013B10CB1012000E05F
:10160000002070BD01468888C0F308007047C1F310
:1016100008028280704700BFFEE702E008C8121F80
:1016200008C1002AFAD170477047002001E001C1CB
:10163000121F002AFBD1704700BFFEE710B5FEF76E
:101640002FFE4FF4A060FEF735FEFEF769FE032380
:10165000044A00210448FFF70BF8FEF7BDFF002005
:1016600010BD00006C1000206D16000870B5044617
:10167000002500BFFEF7D4FFFEF776FD05460723E1
:10168000054A00210548FEF7F3FF0320FFF76CF938
:101690002846FEF76DFD70BD6C120020391600085B
:1016A000000001000200010003000100020001002F
:1016B000040001000200010003000100020001001B
:1016C000050001000200010003000100020001000A
:1016D00004000100020001000300010002000100FB
:1016E00006000100020001000300010002000100E9
:1016F00004000100020001000300010002000100DB
:1017000005000100020001000300010002000100C9
:1017100004000100020001000300010002000100BA
:1017200007000100020001000300010002000100A7
:10173000040001000200010003000100020001009A
:101740000500010002000100030001000200010089
:10175000040001000200010003000100020001007A
:101760000600010002000100030001000200010068
:10177000040001000200010003000100020001005A
:101780000500010002000100030001000200010049
:10179000040001000200010003000100020001003A
:1017A000C017000800000020700000001A16000892
:1017B0003018000870000020682900002A16000870
:1017C0000000000000000000000000000000000019
:1017D0000000000000000000000000000000000009
:1017E00000000000000000000000000000000000F9
:1017F00000000000000000000000000000000000E9
:1018000000000000000000000000000000000000D8
:1018100000000000000000000000000000000000C8
:1018200000000000000000000000000000000000B8
:0400000508000131BD
:00000001FF
